:020000040800F2
:10000000FF4F0020110100085901000859010008A4
:1000100059010008590100085901000800000000BA
:10002000000000000000000000000000B112000805
:100030005901000800000000C1130008091400085D
:100040005901000859010008590100085901000828
:100050005901000859010008590100085901000818
:100060005901000859010008590100085901000808
:1000700059010008590100085901000859010008F8
:1000800059010008590100085901000859010008E8
:1000900059010008590100085901000859010008D8
:1000A00059010008590100085901000859010008C8
:1000B00059010008590100085901000859010008B8
:1000C00059010008590100085901000859010008A8
:1000D0005901000859010008590100085901000898
:1000E00059010008590100085901000800000000EA
:1000F0000000000000000000000000000000000000
:0C01000000000000000000005FF808F1A3
:1001100000F024F80B480C490C4A002302E0D458A4
:10012000C4500433C4188C42F9D3094A094C002343
:1001300001E013600432A242FBD301F0EFF900F0BA
:1001400007F9704700000020080000209015000803
:1001500008000020FC140020FEE7000080B400AF7F
:100160002F4B1B682E4A43F48033136000BF2C4B87
:100170001B6803F40033002BF9D02A4B1B68294A73
:1001800043F010031360274B1B68264A23F0070334
:100190001360244B1B68234A43F004031360204B75
:1001A0001F4A5B6853601E4B5B681D4A43F48063C3
:1001B00053601B4B1A4A5B685360194B5B68184AC3
:1001C00023F47C135360164B5B68154A43F4E81321
:1001D0005360134B1B68124A43F08073136000BFD7
:1001E0000F4B1B6803F00073002BF9D00C4B5B68BE
:1001F0000B4A23F003035360094B5B68084A43F042
:100200000203536000BF064B5B6803F00C03082B2E
:10021000F9D1054B054A1A6000BFBD4680BC704746
:1002200000100240002002400000002000A24A040A
:1002300080B485B000AF0023FB600023BB600023C7
:100240007B602F4B5B6803F00C03FB60FB68082BA3
:1002500011D0FB68082B3AD8FB68002B03D0FB6851
:10026000042B04D033E0274B274A1A6033E0254B98
:10027000254A1A602FE0224B5B6803F47013BB60C1
:100280001F4B5B6803F480337B60BB689B0C0233BD
:10029000BB607B68002B06D1BB681C4A02FB03F3E2
:1002A000184A136017E0164B5B6803F40033002B09
:1002B00006D0BB68154A02FB03F3124A13600AE03A
:1002C000BB68114A02FB03F30E4A136003E00D4BB7
:1002D0000D4A1A6000BF0A4B5B681B0903F00F034D
:1002E0000B4AD35CFB60074B1A68FB6822FA03F3E6
:1002F000044A136000BF1437BD4680BC704700BF7E
:10030000001002400000002000127A0000093D00A9
:100310007C15000880B400AF00BFBD4680BC7047AC
:1003200080B582B000AF7860084B4FF000521A6180
:100330004FF4FA7000F024FA044B4FF400521A61A3
:100340004FF4FA7000F01CFA00BFEDE70010014016
:1003500080B584B002AFFFF76BFF134B9B69124A65
:1003600043F010039361114B5B68104A23F4400380
:1003700053600E4B5B680D4A43F4801353600023B7
:1003800001930123009300234FF480720849094828
:1003900000F0DAF878607B68012B02D100F05EFA99
:1003A00000BF00BFFDE700BF001002400010014089
:1003B0006C1500082103000880B483B000AF78609A
:1003C0007B6803F108027B685A607B684FF0FF325C
:1003D0009A607B6803F108027B68DA607B6803F14E
:1003E00008027B681A617B6800221A6000BF0C3724
:1003F000BD4680BC704780B483B000AF78607B6836
:1004000000221A6100BF0C37BD4680BC704780B423
:1004100085B000AF786039603B681B68BB60BB6823
:10042000B3F1FF3F03D17B681B69FB600CE07B6885
:100430000833FB6002E0FB685B68FB60FB685B689D
:100440001B68BA689A42F6D2FB685A683B685A60E1
:100450003B685B683A689A603B68FA689A60FB6838
:100460003A685A603B687A681A617B681B685A1C54
:100470007B681A6000BF1437BD4680BC704780B4EB
:1004800085B000AF78607B681B69FB607B685B6848
:100490007A6892689A607B689B687A6852685A604A
:1004A000FB685B687A689A4203D17B689A68FB684C
:1004B0005A607B6800221A61FB681B685A1EFB6841
:1004C0001A60FB681B6818461437BD4680BC70472D
:1004D00080B58AB004AFF860B9607A603B607B6831
:1004E0009B00184600F000FD38613B69002B13D0DB
:1004F0004C2000F0F9FC78617B69002B08D04C227D
:100500000021786900F0BCFF7B693A691A6305E055
:10051000386900F097FD01E000237B617B69002BC7
:100520000DD0002303937B6902937B6A01933B6A9E
:1005300000933B687A68B968F86800F028F87B692E
:1005400018461837BD4680BD80B588B002AFF86048
:10055000B9607A603B607B6A01933B6A00933B68B9
:100560007A68B968F868FFF7B3FF38613B69002B18
:1005700005D0386900F070F801237B6102E04FF08C
:10058000FF337B617B6918461837BD4680BD80B557
:1005900086B000AFF860B9607A603B60BB6A1A6BE6
:1005A0007B6803F18043013B9B0013443B613B6943
:1005B00023F007033B61BB68002B1ED000237B6147
:1005C00012E0BA687B6913441978BA6A7B691344EC
:1005D00034330A461A70BA687B6913441B78002BBF
:1005E00006D07B6901337B617B690F2BE9D900E081
:1005F00000BFBB6A002283F843203B6A042B01D969
:1006000004233B62BB6A3A6ADA62BB6A0433184667
:10061000FFF7F1FEBB6A18331846FFF7ECFEBB6A22
:10062000BA6A1A613B6AC3F10502BB6A9A61BB6A86
:10063000BA6A5A623A68F968386900F0EFFD024612
:10064000BB6A1A607B6A002B02D07B6ABA6A1A60A6
:1006500000BF1837BD4680BD80B584B000AF78605C
:1006600000F07AFE3F4B1B6801333E4A13603E4B5D
:100670001B68002B09D13C4A7B681360394B1B680F
:10068000012B10D100F084FB0DE0384B1B68002BD0
:1006900009D1354B1B68DA6A7B68DB6A9A4202D85B
:1006A000314A7B681360324B1B680133304A136058
:1006B0007B68DB6A01229A402E4B1B6813432D4A4C
:1006C00013607B68DA6A2C4913469B0013449B0035
:1006D0000B4404331B68FB607B68FA689A60FB6814
:1006E0009A687B68DA60FB689B687A6804325A60B3
:1006F0007B681A1DFB689A607B68DA6A13469B0068
:1007000013449B001C4A1A447B685A617B68DA6A6E
:10071000194913469B0013449B000B441B687A68DD
:10072000D26A591C144813469B0013449B0003448F
:10073000196000F02BFE0D4B1B68002B0ED00A4BEE
:100740001B68DA6A7B68DB6A9A4207D20B4B4FF070
:1007500080521A60BFF34F8FBFF36F8F00BF103707
:10076000BD4680BDB400002008000020C00000206D
:10077000D0000020BC0000200C00002004ED00E0B0
:1007800080B584B000AF78600023FB607B68002BED
:1007900008D000F091F80021786800F04FFB00F0DD
:1007A00099F8F860FB68002B07D1064B4FF0805298
:1007B0001A60BFF34F8FBFF36F8F00BF1037BD4676
:1007C00080BD00BF04ED00E080B58AB002AF012318
:1007D000FB6100233B6100237B6111E01C4A7B69C4
:1007E000134419783A467B6913440A461A703A460C
:1007F0007B6913441B78002B06D07B6901337B6136
:100800007B690F2BEADD00E000BF0023BB6115E030
:10081000104B3B61BB699B000F4A1344394601935F
:1008200000230093002380223869FFF78DFEF861D2
:10083000FB69002B06D0BB690133BB61BB69002B90
:10084000E6DD00E000BFFB6918462037BD4680BDED
:1008500074150008610D0008D800002080B582B032
:1008600000AFFFF7B1FF78607B68012B15D14FF027
:10087000BF0383F31188BFF36F8FBFF34F8F3B60CC
:1008800000BF094B4FF0FF321A60084B01221A607B
:10089000074B00221A6000F031FD064B1B6800BFB9
:1008A0000837BD4680BD00BFD4000020C000002036
:1008B000B80000208C15000880B400AF044B1B6802
:1008C0000133034A136000BFBD4680BC704700BFC0
:1008D000DC00002080B588B000AF0023FB6100235E
:1008E000BB6100F039FD00233B616D4B1B68013B90
:1008F0006B4A13606A4B1B68002B40F0CA80694B3F
:100900001B68002B00F0C5808EE0674BDB68DB685E
:10091000FB61FB699B6AFB60FB69DB69FA69126A30
:100920009A60FB691B6AFA69D2695A60FB685A6867
:10093000FB6918339A4203D1FB691A6AFB685A6053
:10094000FB6900229A62FB681B685A1EFB681A60EA
:10095000FB695B69BB60FB699B68FA69D2689A6056
:10096000FB69DB68FA6992685A60BB685A68FB6980
:1009700004339A4203D1FB69DA68BB685A60FB69A9
:1009800000225A61BB681B685A1EBB681A60FB696B
:10099000DB6A01229A40454B1B681343434A1360AC
:1009A000FB69DA6A424913469B0013449B000B44DF
:1009B00004331B687B60FB697A689A607B689A687D
:1009C000FB69DA607B689B68FA6904325A60FB69EC
:1009D0001A1D7B689A60FB69DA6A13469B00134410
:1009E0009B00334A1A44FB695A61FB69DA6A304951
:1009F00013469B0013449B000B441B68FA69D26AA0
:100A0000591C2B4813469B0013449B000344196058
:100A1000FB69DA6A274B1B68DB6A9A4204D9264ACB
:100A20003B69012142F823101F4B1B68002B7FF408
:100A30006CAFFB69002B01D000F0E6F91F4B1B687F
:100A40007B617B69002B12D000F03CF80346002B41
:100A500004D0194A3B69012142F823107B69013B0C
:100A60007B617B69002BEFD1144B00221A60124A84
:100A70003B6952F82330002B0BD00123BB610D4B97
:100A80001B680F4B4FF080521A60BFF34F8FBFF3BC
:100A90006F8F00F07BFCBB6918462037BD4680BDD8
:100AA000DC000020B4000020A0000020BC000020DA
:100AB0000C00002008000020C8000020C400002016
:100AC00004ED00E080B588B000AF0023FB61764BF9
:100AD0001B68002B40F0DE80744B1B680133BB6148
:100AE000724ABB691360BB69002B10D1704B1B6845
:100AF0007B61704B1B686E4A13606E4A7B691360A2
:100B00006D4B1B6801336C4A136000F07DF96B4B31
:100B10001B68BA699A42C0F0A880654B1B681B68C5
:100B2000002B04D1654B4FF0FF321A609DE0604B03
:100B30001B68DB68DB683B613B695B68FB60BA692B
:100B4000FB689A4203D25D4AFB6813608DE03B6903
:100B50005B69BB603B699B683A69D2689A603B6994
:100B6000DB683A6992685A60BB685A683B6904332B
:100B70009A4203D13B69DA68BB685A603B6900223C
:100B80005A61BB681B685A1EBB681A603B699B6A46
:100B9000002B1ED03B699B6A7B603B69DB693A692D
:100BA000126A9A603B691B6A3A69D2695A607B682B
:100BB0005A683B6918339A4203D13B691A6A7B68C9
:100BC0005A603B6900229A627B681B685A1E7B68E8
:100BD0001A603B69DB6A01229A40394B1B68134358
:100BE000374A13603B69DA6A364913469B0013445F
:100BF0009B000B4404331B683B603B693A689A6076
:100C00003B689A683B69DA603B689B683A690432E2
:100C10005A603B691A1D3B689A603B69DA6A134661
:100C20009B0013449B00274A1A443B695A613B6965
:100C3000DA6A244913469B0013449B000B441B684B
:100C40003A69D26A591C1F4813469B0013449B0003
:100C5000034419603B69DA6A1B4B1B68DB6A9A42E2
:100C60007FF65BAF0123FB6157E7174B1B68DA6A1E
:100C7000144913469B0013449B000B441B68012B33
:100C800001D90123FB61114B1B68002B07D0012305
:100C9000FB6104E00E4B1B6801330D4A1360FB69D6
:100CA00018462037BD4680BDDC000020B80000207B
:100CB000980000209C000020CC000020D4000020E0
:100CC000BC0000200C00002008000020C80000200C
:100CD000C400002080B485B000AF1C4B1B68002B03
:100CE00003D01B4B01221A602BE0194B00221A6023
:100CF000184B1B687B607B68B3FA83F3FB70FB784F
:100D0000C3F11F03FB60FA6813469B0013449B006A
:100D1000114A1344BB60BB685B685A68BB685A6081
:100D2000BB685A68BB6808339A4203D1BB68DA686B
:100D3000BB685A60BB685B68DB68084A1360074B96
:100D40001B6800BF1437BD4680BC7047DC00002024
:100D5000C8000020BC0000200C000020080000207B
:100D600080B582B000AF786000F048F8064B1B6891
:100D7000012BF9D9054B4FF080521A60BFF34F8F0A
:100D8000BFF36F8FF0E700BF0C00002004ED00E020
:100D900080B582B000AF00237B600CE07A68134618
:100DA0009B0013449B000F4A13441846FFF704FBB3
:100DB0007B6801337B607B68042BEFD90A48FFF71F
:100DC000FBFA0A48FFF7F8FA0948FFF7F5FA094B6A
:100DD000054A1A60084B054A1A6000BF0837BD462D
:100DE00080BD00BF0C0000207000002084000020A7
:100DF000A0000020980000209C00002080B400AFDC
:100E000000BFBD4680BC704780B400AF094B1B6873
:100E10001B68002B04D1084B4FF0FF321A6005E02D
:100E2000044B1B68DB681B68034A136000BFBD46A8
:100E300080BC704798000020D400002080B586B0A8
:100E400000AF78603960224B1B687B61214B1B68C7
:100E50003B61214B1B68FB60204B1B680433184629
:100E6000FFF70DFB0346002B0BD11C4B1B68DB6A05
:100E7000012202FA03F3DA43194B1B681340184AA4
:100E800013607A697B681344BB60144B1B68BA68B3
:100E90005A60BA687B699A4207D2104B1B680433C8
:100EA0001946F868FFF7B3FA0EE00C4B1B680433E1
:100EB00019463869FFF7ABFA0A4B1B68BA689A42C1
:100EC00002D2084ABB68136000BF1837BD4680BD18
:100ED000B8000020980000209C000020080000209E
:100EE000BC000020D400002080B588B000AF78603E
:100EF00000237B617B68002B22D00823DB437A68C8
:100F00009A421BD808227B6813447B607B6803F0FD
:100F10000703002B14D07B6803F00703C3F1080319
:100F20003B613B69DB437A689A4204D87A683B6943
:100F300013447B6004E000237B6001E000237B60BE
:100F4000FFF7BAFC3A4B1B68002B01D100F0B4F854
:100F50007B68002B64DB7B68002B61D0354B1B6802
:100F60007A689A425CD8344BBB61334B1B68FB6197
:100F700004E0FB69BB61FB691B68FB61FB695B68A3
:100F80007A689A4203D9FB691B68002BF1D1284B80
:100F90001B68FA699A4243D0BB691B680822134454
:100FA0007B61FB691A68BB691A60FB695A687B68D8
:100FB000D21A08235B009A4213D9FA697B6813445A
:100FC000FB60FB695A687B68D21AFB685A60FB6950
:100FD0007A685A60BB691A68FB681A60BB69FA686C
:100FE0001A60144B1A68FB695B68D31A114A1360C4
:100FF000104B1A68114B1B689A4203D20D4B1B68A9
:101000000E4A1360FB695B6843F00042FB695A605B
:10101000FB6900221A600A4B1B680133084A1360FF
:10102000FFF758FC7B6918462037BD4680BD00BFDE
:10103000E8140020EC140020E0140020F01400203C
:10104000F414002080B584B000AF78607B68FB604A
:101050007B68002B27D008235B42FA681344FB60AF
:10106000FB68BB60BB685B68002B1CDABB681B6855
:10107000002B18D1BB685B6823F00042BB685A6044
:10108000FFF71AFCBB685A68094B1B681344084AEF
:101090001360B86800F06AF8064B1B680133054A14
:1010A0001360FFF717FC00BF1037BD4680BD00BFBF
:1010B000EC140020F814002080B485B000AF4FF489
:1010C000A053BB60244BFB60FB6803F00703002BBD
:1010D0000CD0FB680733FB60FB6823F00703FB6061
:1010E000BA68FB68D31A1C4A1344BB60FB681B4AEE
:1010F00013601A4B00225A60FA68BB6813447B6085
:1011000008227B689B1A7B607B6823F007037B6067
:101110007B68134A1360124B1B6800225A60104B05
:101120001B6800221A60FB683B603B687A68D21A31
:101130003B685A600A4B1A683B681A603B685B68F8
:10114000084A13603B685B68074A136000BF1437A6
:10115000BD4680BC704700BFE0000020E0140020C6
:10116000E8140020F0140020EC14002080B485B0B6
:1011700000AF7860274BFB6002E0FB681B68FB60F8
:10118000FB681B687A689A42F7D8FB68BB60FB680B
:101190005B68BA6813447A689A4208D1FB685A6857
:1011A0007B685B681A44FB685A60FB687B607B68FD
:1011B000BB607B685B68BA681A44FB681B689A422C
:1011C00018D1FB681A68144B1B689A420DD07B68D3
:1011D0005A68FB681B685B681A447B685A60FB6846
:1011E0001B681A687B681A6008E00B4B1A687B68FA
:1011F0001A6003E0FB681A687B681A60FA687B680B
:101200009A4202D0FB687A681A6000BF1437BD4664
:1012100080BC7047E0140020E814002080B485B042
:1012200000AFF860B9607A60FB68043BFB60FB6864
:101230004FF080721A60FB68043BFB60BB6823F0D0
:101240000102FB681A60FB68043BFB60084AFB680C
:101250001A60FB68143BFB607A68FB681A60FB68E5
:10126000203BFB60FB6818461437BD4680BC7047C6
:101270007512000880B483B000AF00233B604FF0CC
:10128000BF0383F31188BFF36F8FBFF34F8F7B6072
:1012900000BF00BF3B68002BFCD000BF00BF0C3775
:1012A000BD4680BC70470000000000000000000048
:1012B000074B19680868B0E8F00F80F30988BFF39E
:1012C0006F8F4FF0000080F311884EF00D0E7047C5
:1012D0000800002000BF00BF06480068006880F3D7
:1012E000088862B661B6BFF34F8FBFF36F8F00DF20
:1012F00000BF000008ED00E000BF00BF80B582B075
:1013000000AF114B1B687B60104B1B680F4A43F406
:101310007F0313600D4B1B680C4A43F07F4313603F
:101320000B4B00221A6000F091F80A4B00221A6061
:10133000FFF7D2FFFFF7CEFCFFF79CFF0023184614
:101340000837BD4680BD00BF08ED00E020ED00E09D
:101350001CED00E00400002080B483B000AF4FF02B
:10136000BF0383F31188BFF36F8FBFF34F8F7B6091
:1013700000BF054B1B680133034A136000BF0C37E5
:10138000BD4680BC704700BF0400002080B483B01D
:1013900000AF0A4B1B68013B084A1360074B1B68F0
:1013A000002B05D100237B607B6883F3118800BF8D
:1013B00000BF0C37BD4680BC704700BF0400002052
:1013C000EFF30980BFF36F8F0D4B1A6820E9F00F20
:1013D00010602DE908404FF0BF0080F31188FFF73F
:1013E00079FC4FF0000080F31188BDE808401968CF
:1013F0000868B0E8F00F80F30988BFF36F8F70477B
:101400000800002000BF00BF80B582B000AF4FF0E1
:10141000BF0383F31188BFF36F8FBFF34F8F7B60E0
:1014200000BFFFF74FFB0346002B03D0064B4FF0E6
:1014300080521A6000233B603B6883F3118800BF31
:1014400000BF0837BD4680BD04ED00E080B400AFAA
:10145000074B00221A60074B00221A60064B074A0E
:101460001A60034B07221A6000BFBD4680BC70475C
:1014700010E000E018E000E014E000E03F19010097
:10148000830730B546D08446841805E0634603F8E8
:10149000011B9D0703D09C46A445F7D130BD013AFE
:1014A0000244A2EB0C02032A29D9CCB204EB042497
:1014B0000F2A04EB04442FD9A2F1100C2CF00F0CCE
:1014C00003F11005AC44C3E90044C3E902441033FE
:1014D0006345F8D112F00C0F02F00F0E18D01A4627
:1014E0002EF0030C9C44AEF1040542F8044B624517
:1014F000FBD125F0030404330EF003022344002A39
:10150000CCD0C9B21A4403F8011B9342FBD130BDC1
:101510007246F4E70346C6E79646E0E770B50F4B20
:101520000F4DAB42A3EB050607D00024B61055F8CB
:10153000043B01349847A642F9D8FEF7EBFE094D6B
:10154000094B5E1BAB424FEAA60606D0002455F8B5
:10155000043B01349847A642F9D870BD90150008A5
:0C15600090150008901500089015000878
:10156C00426C696E6B00000049444C450000000061
:10157C000000000000000000010203040607080937
:04158C000400000057
:0815900000127A00AAAAAAAA1F
:0400000508000111DD
:00000001FF
