:020000040800F2
:10000000FF4F0020B5040008FD040008FD040008AF
:10001000FD040008FD040008FD04000800000000C5
:10002000000000000000000000000000FD040008C7
:10003000FD04000800000000FD040008C1010008E4
:10004000FD040008FD040008FD040008FD0400088C
:10005000FD040008FD040008FD0100086D02000811
:10006000FD040008FD040008FD040008FD0400086C
:10007000FD040008FD040008FD040008FD0400085C
:10008000FD040008FD040008FD040008FD0400084C
:10009000FD040008FD040008FD040008FD0400083C
:1000A000FD040008FD040008FD040008FD0400082C
:1000B000FD040008FD040008FD040008FD0400081C
:1000C000FD040008FD040008FD040008FD0400080C
:1000D000FD040008FD040008FD040008FD040008FC
:1000E000FD040008FD040008FD04000800000000F5
:1000F0000000000000000000000000000000000000
:0C01000000000000000000005FF808F1A3
:10010C0080B483B000AF0346FB7197F90730002B26
:10011C000BDBFB7903F01F02064997F907305B09EB
:10012C00012000FA02F241F8232000BF0C37BD4633
:10013C0080BC704700E100E080B483B000AF0346A0
:10014C003960FB7197F90730002B0ADB3B68DAB298
:10015C000C4997F907301201D2B20B4483F80023F3
:10016C000AE03B68DAB20849FB7903F00F03043B61
:10017C001201D2B20B441A7600BF0C37BD4680BCBC
:10018C00704700BF00E100E000ED00E080B485B0F6
:10019C0000AF78600023FB6002E0FB680133FB607A
:1001AC00FA687B689A42F8D300BF00BF1437BD468B
:1001BC0080BC704780B400AF0B4B1B6801330A4AFC
:1001CC001360094B1B68B3F5FA7F08D3074BDB6848
:1001DC00064A83F40053D360034B00221A6000BF1D
:1001EC00BD4680BC704700BF0400002000100140D9
:1001FC0080B582B000AF164B1B78DBB2002B0CBF66
:10020C0001230023DBB21A46114B1A7000237B60CA
:10021C0014E0104BDB680F4A43F00403D3600E4824
:10022C00FFF7B4FF0B4BDB680A4A23F00403D360DF
:10023C000948FFF7ABFF7B6801337B607B68042BBD
:10024C00E7DD064B01225A6100BF0837BD4680BD71
:10025C000000002000080140801A06000004014044
:10026C0080B500AF094BDB68084A43F00803D36044
:10027C000748FFF78BFF054BDB68044A23F00803A4
:10028C00D360044B02225A6100BF80BD00080140BC
:10029C0060E316000004014080B582B000AF714BE2
:1002AC009B69704A43F4077343F0010393616E4BEF
:1002BC001B686D4A23F0040313606B4B40F2E7326A
:1002CC005A60694B00229A60674B1B68664A43F080
:1002DC0003031360654B5B68644A23F4400353606B
:1002EC00624B5B68614A43F400135360604B614A94
:1002FC001A60614B5B68604A23F47F4353605E4B2A
:10030C005B685D4A43F44C535360594BDB68584A65
:10031C0023F00303D360594B9B68584A23F0FF0327
:10032C009360574B1B68564A43F003031360544BBE
:10033C009B68534A43F0030393600F210620FFF799
:10034C00FBFE00210720FFF7F7FE0620FFF7D8FE83
:10035C000720FFF7D5FE4B4B9B684A4A43F001033D
:10036C009360484B9B68474A43F400039360454BAA
:10037C00DB68444A43F4E013D360424B1B69414AA7
:10038C0043F4E04313613F4B9B683E4A43F46023C4
:10039C0093603C4B9B683B4A43F4801393603A4B0D
:1003AC001B78DBB2002B03D1364B10225A6302E0D0
:1003BC00344B04225A63334B9B68324A43F4800318
:1003CC00936000BF2F4B1B6803F00203002BF9D086
:1003DC002C4BDB6CFB80264BDB68254A43F0E0039F
:1003EC00D360254BDB68244A43F44063D360FB881D
:1003FC0040F2AA22934205D91D4BDB681C4A23F01C
:10040C002003D360FB8840F25552934205D9184B18
:10041C00DB68174A23F04003D360FB88B3F5006F09
:10042C0005D9134BDB68124A23F08003D360FB8899
:10043C0040F6AA22934205D90F4BDB680E4A23F4EF
:10044C008063D360FB8840F65452934205D90A4B23
:10045C00DB68094A23F40063D3600C48FFF796FE6F
:10046C009DE700BF0010024010E000E000100140CA
:10047C000008014088333033000C0140000001407B
:10048C00000401400024014000000020A08601006F
:10049C0080B400AF00BFBD4680BC704780B400AFD5
:1004AC0000BFBD4680BC7047FFF7F8FF0B480C49F6
:1004BC000C4A002302E0D458C4500433C4188C42B4
:1004CC00F9D3094A094C002301E013600432A2421B
:1004DC00FBD300F00FF8FFF7DFFE704700000020A1
:1004EC00000000205005000800000020080000203B
:1004FC00FEE7000070B50F4B0F4DAB42A3EB0506AA
:10050C0007D00024B61055F8043B01349847A64296
:10051C00F9D8FFF7BDFF094D094B5E1BAB424FEA03
:10052C00A60606D0002455F8043B01349847A64291
:10053C00F9D870BD5005000850050008500500089A
:04054C00500500084E
:04000005080004B536
:00000001FF
